:020000040000fa
:080000001415040000000000cb
:020000040000fa
:1000080004140000081400000c1400001014000070
:100018001414000004140000041400000414000068
:10002800181400001c140000201400002414000000
:1000380004140000281400002c14000030140000e0
:1000480034140000381400003c1400004014000070
:1000580044140000481400000414000004140000b4
:100068004c140000501400005414000058140000f0
:100078005c14000004140000601400006414000004
:1000880004140000681400006c14000070140000d0
:1000980074140000781400007c1400008014000020
:1000a80084140000881400000414000004140000e4
:1000b800041400008c140000901400009414000034
:1000c800981400009c140000a0140000a414000060
:1000d800a8140000ac14000004140000041400006c
:1000e80004140000b0140000b4140000041400004c
:1000f80004140000b8140000bc140000041400002c
:100108000414000004140000041400000414000087
:100118000414000004140000c014000004140000bb
:1001280004140000c4140000c8140000cc1400001b
:100138000414000004140000041400000414000057
:10014800d01400000414000004140000041400007b
:1001580004140000d4140000041400000414000067
:1001680004140000d8140000dc140000e01400009f
:10017800e4140000e8140000ec140000f01400007f
:10018800f4140000f8140000fc140000001500002e
:1001980004150000081500000414000004140000f1
:1001a80004140000041400000414000004140000e7
:1001b8000c150000041400000414000004140000ce
:1001c80004140000041400000414000004140000c7
:1001d80004140000041400000414000004140000b7
:1001e80004140000041400000414000004140000a7
:0801f8000414000004140000cf
:020000040000fa
:102800001415040000000000061704000200000078
:1028100006170400020000009ada0400010000001c
:1028200086da04000100000072da040001000000f2
:102830000617040002000000061704000200000052
:10284000f208040002000000dc1104000200000095
:1028500006170400020000007e9204000100000040
:1028600082920400010000008ef4040001000000c8
:102870000617040002000000061704000200000012
:102880000617040002000000061704000200000002
:1028900006170400020000000617040002000000f2
:1028a00006170400020000000617040002000000e2
:1028b0000617040002000000d6ff0400010000001b
:1028c00006170400020000000617040002000000c2
:1028d00006170400020000000617040002000000b2
:1028e00046f9040001000000fa050400020000009f
:1028f000ce93040001000000d2fc0400010000009f
:1029000024fd04000100000006170400020000007e
:102910000617040002000000061704000200000071
:102920000617040002000000061704000200000061
:102930000617040002000000061704000200000051
:102940000617040002000000061704000200000041
:102950000617040002000000061704000200000031
:102960000617040002000000061704000200000021
:102970000617040002000000061704000200000011
:102980000617040002000000061704000200000001
:1029900006170400020000000617040002000000f1
:1029a00006170400020000000617040002000000e1
:1029b00006170400020000000617040002000000d1
:1029c00006170400020000000617040002000000c1
:1029d0000617040002000000500f0400020000006f
:1029e00006170400020000000617040002000000a1
:1029f0000617040002000000061704000200000091
:102a00000617040002000000061704000200000080
:102a100006170400020000002af60400000000006f
:082a200006170400020000008b
:020000040000fa
:102a2800af4127000eff27000e01880000000000bc
:102a38000c000700e0002a00110020000f0007002a
:102a4800000020000000e000020032000000020048
:102a58000000000094d90200010000000040da00e4
:102a68000000fe00403921000000e00002003200b2
:102a7800002020009001880000000600a1028800c4
:102a8800800078000000eb001a003700e280400068
:102a980054a0b4009101ba00e280400054a0b400f0
:102aa8009102ba00e280400054a0b4000002eb009a
:102ab800472bde00f507b200a6018800602ce10074
:102ac80008003a000049eb000201e8000200390062
:102ad8003420ec0002f0a0008301e900f9ff3e0079
:102ae800040037006128e100010032000082eb0099
:102af800040007001101ba000200e000e3ff3a00f9
:102b08000000060004d0a300e20f49001c003900b1
:102b1800810278003549ba000201e8000200390054
:102b28003420ec0002f0a0008301e9000f0032001d
:102b38002549ba000201e800020039003420ec00ff
:102b480002f0a0008301e900080032000400e00060
:102b58000600320015c9ba000201e8000200390077
:102b68003420ec0002f0a0008301e9008180e80035
:102b780054a0b4000300e000e2ff3a0000000600a1
:102b88009102ba00055978008301e900f7ff320085
:102b9800c82ade00055978008301e900f3ff3200f6
:102ba8000400e000f1ff320011d9ba00eeff37004f
:102bb8009c5d0400010000002cc604000100000018
:102bc800cc75040001000000167404000100000028
:102bd800c073040001000000deab04000100000027
:102be800c0ab04000100000078ab04000100000045
:102bf800c29c040001000000689c04000100000061
:102c08000ac304000100000060c2040001000000c3
:102c1800bec2040001000000f4a604000100000088
:102c28008aa6040001000000b86404000100000046
:102c38000262040001000000a86304000100000013
:102c480006640400010000004c13040001000000a9
:102c5800de120400010000001e1304000100000041
:102c6800c2dc04000100000068dc04000100000070
:102c7800947c0400010000003a7c0400010000007c
:102c88000697040001000000969604000100000069
:102c98003c9604000100000070440400010000009c
:102ca8001443040001000000e44104000100000096
:102cb80060e504000100000006e5040001000000d2
:102cc8006437040001000000e6340400010000003d
:102cd8009436040001000000f633040001000000ef
:102ce800eeb90400010000003cb904000100000036
:102cf8002ef6040001000000ecf5040001000000bd
:102d080058d404000100000098d604000100000017
:102d1800f40d040002000000400e04000200000050
:102d2800e00f040002000000a0ff04000100000002
:102d3800e2fe0400010000001ae7040001000000a0
:102d4800aae80400010000004af6040000000000a0
:102d580010f8040000000000a8ef040001000000c3
:102d6800fec8040001000000a4f9040001000000ee
:102d7800a0f80400010000004869040001000000f8
:102d8800b2fd0400010000009615040002000000d6
:102d980082fd04000100000084cc04000100000052
:102da80056ca040001000000deec04000100000027
:102db8005aed04000100000066ed04000100000067
:102dc800aaed040001000000c2ed040001000000ab
:102dd800bce20400010000007ce1040001000000e6
:102de8002ce204000100000024350400000000006b
:102df800081704000000000076240400000000000a
:102e0800ce3d040000000000881f7800020478000e
:102e180008017800a6070700080040004f04780062
:102e2800000006000000fa00881f780000047800ff
:102e3800ea8157003fb99700880078008070210028
:102e480007000700e00f5000020035000041eb00ca
:102e5800027478004f0478000080fa000000060031
:102e68006200fa00889fbe008a9fbe008c9fbe0049
:102e78000005780081047800020478008300780057
:102e880020f92f000f004000f0120700ea8f9f0082
:102e9800f98f9f000000eb00809f9f00ed22260025
:102ea8002c222600fbff2700184078000085fb0035
:102eb8008a04fb000a05ea004f55de005002200094
:102ec800808f54000d003200e10f55000b003a00ce
:102ed8000a017800880078007f889700ef899700ba
:102ee80003000100f08f9f00e00f50008d003200ba
:102ef8000f9897000000e800809f9f000a04440094
:102f080050022000808f540004003200e08f5400eb
:102f1800e5ff3a000f989700830037000000eb00a8
:102f2800e0979f00d0979f00c0979f00b0979f00a1
:102f3800a0979f0090979f00a09f9f0007003700d1
:102f48000d005000000040006c007800af9897001a
:102f580000807000a09f9f000804e8009844780053
:102f68008900fb00e0222600680b0700e00f5000f4
:102f7800f3ff3a00a1c2b30081cf54000e003a001b
:102f88009f8897000180e900908f9f0010007800cb
:102f9800909f9f00e00f500005003d000000ea00f0
:102fa800909f9f002f9897000020a000a09f9f004f
:102fb8000804e8000f003700909f9f0008003700c2
:102fc8001f9897008b0f5000040032006a00b90068
:102fd8000003b10002004000909f9f000804e80031
:102fe8001801fb0000fd2f0002004000e90f50000f
:102ff800f3ff3600e0c2b300984f10000300320020
:103008000080eb00f0979f001a003700a0c2b300c1
:10301800d84f100007003a009f8897000180e90008
:10302800908f9f0010007800f0979f000804e80038
:10303800100037000000eb00f0979f0008003700f1
:103048007f9097008b0f5000040032006a00b9008f
:103058000003b10002004000f0979f000804e80058
:103068001801fb0000fd2f0002004000e90f50008e
:10307800f3ff3600984478008900fb00a021260061
:10308800220b0700e00f5000020032000804e8009d
:103098000100370080447800e9779f0080c6b300bc
:1030a80080cf540004003a0098cf14000a003a0078
:1030b8006640500006003700c0c6b30080cf5400f9
:1030c80005003a0098cf140003003a00654040001c
:1030d800e0779f000804e8001801fb0083fb2f003d
:1030e8008f81410021f92f008f80400040f92f0087
:1030f8000f00400011000700e00f500009003a00df
:1031080081fb2f008f80400040f92f000f00400006
:1031180092110700e00f5000020035000804e80093
:1031280061ff37000080eb004f06be004f05be0070
:103138004f04be000080fa0000000600889fbe0011
:103148008a1f78000004780082447800030578001c
:1031580070c6b30080cf540021003c0000c0e900d5
:1031680080cf5400d7003d007240500080cf5400fb
:10317800430132000d003c006c40500080cf5400e9
:1031880056013c0000c0e90080cf5400cd003d004e
:1031980050c2b30080cf54004d0132007c40400043
:1031a80080cf54004d013a00c600370010c6b30066
:1031b80080cf5400c300320004003c006940500036
:1031c80080cf540045013a006c00370030c6b30088
:1031d80080cf5400180032000040e8000900370092
:1031e80000c7b30080cf54001601320008003c002d
:1031f80000c0e90080cf5400db0032005f003c00d3
:103208006540500080cf540034013a000f00370069
:1032180050c7b30080cf54005800320063404000cc
:1032280080cf5400550032006540500080cf5400d4
:103238002a013a00120137001181e900820878005a
:1032480078009000127578002a01370028609000f5
:10325800c2c6b300824f500009003a00110078003e
:1032680064025000840878001400be001402900024
:103278004fa2de00040178008401780012003700b4
:1032880012c7b300824f500003003200a2c6b30039
:10329800824f500006003a00110178006800510082
:1032a800800878005001be004000be0006003700cc
:1032b8001180e9008008780010007800cf80de00d7
:1032c8000101780082017800009cbe000294be00d3
:1032d8002862900085c6b300854f52000e00320068
:1032e80025c6b300854f520005003a000000fb00d8
:1032f800cf80de00010178008201780009003700e4
:1033080045c7b300854f520003003200e6c24200b1
:10331800854f520005003a00cf80de000101780099
:1033280082017800009cbe000294be003802be00f4
:103338002803be0078009000d1c2b300e00f52000d
:10334800e08f5a00e00f5b00e08f5b00080035005b
:10335800881090006281600002003200b1c2b300a0
:1033680003003700e18060005100320001c2b30061
:10337800017578000000e8004c00370028609000d4
:10338800c2c6b300824f500007003a00110078000f
:1033980064025000840878001400be000001eb00ad
:1033a800820178001200370012c7b300824f500024
:1033b80003003200a2c6b300824f500006003a0054
:1033c8001101780068005100800878005001be00a3
:1033d8004000be00060037001180e9008008780030
:1033e80010007800010020000200200003002000e7
:1033f800009cbe000294be002862900085c6b300ff
:10340800854f52000e00320025c6b300854f52008a
:1034180005003a000080fb000100200002002000a7
:10342800030020000900370045c7b300854f52004c
:1034380003003200e6c24200854f520005003a0000
:10344800010020000200200003002000009cbe00b4
:103458000294be000810900068006000140032005a
:103468003800be002801be00e00f5000e08f580071
:10347800e00f5900e08f59000d00320080c7b300fb
:1034880080cf54000300320080c5b30080cf5400c1
:1034980007003a00f800900000c3b30000f5780078
:1034a8000100e800097578000180e80070049800c0
:1034b80078009000000545006a049800894078006b
:1034c8006c00370028619000c0c4b300804f5100e1
:1034d80006003a0011017800680051008008780061
:1034e8005001be004000be00050037001101780001
:1034f80064005100800878001000be001c1307000b
:10350800009cbe000294be00b800900078009000b5
:10351800e08f500002003d00d1c2b3000800370020
:10352800881090006281600002003200b1c2b300ce
:1035380003003700e18060000400320001c2b300dc
:10354800017578000000e800700498007800900089
:10355800000545006a0498008900fb00080078000f
:103568006a0007006500370028609000c3c6b300f2
:103578001181e900834f5000260032000a003c0008
:10358800e4c15100834f50001f00320083c1e8009e
:10359800834f500013003200e8c15100834f5000a0
:1035a80022003a000a00370043c7b300834f500097
:1035b80015003200e6c14100834f5000120032006e
:1035c800e9c15100834f500018003a000500370048
:1035d8008208780012007800485c9000084878005b
:1035e80046003700820878001202780068089000c8
:1035f800cf80de000101780082017800009abe00c9
:103608000292be003d003700820878001200780060
:1036180009003700820878001201780068089000d5
:10362800cf80de000089be00340037001180e90039
:103638008008780010007800680c9000080878006e
:103648002e0037001180e90080087800100078000b
:10365800cf80de000101780082017800009cbe0066
:103668000294be0078009000000545006a049800a6
:1036780081c7b30008007800f20e07001f0037006a
:103688001180e90080087800100578006a04980025
:10369800d80c9000e08f540004003d000a00780028
:1036a800a8060700800478000700370009017800a1
:1036b8008000eb000a007800cd0d0700e00f5000f5
:1036c800010032008a045000190c98000b003700e2
:1036d800780090000975780006003700780090009f
:1036e80000054500e0cf540001003a0059c2b3007c
:1036f800094d78000000e800700498000000eb0015
:103708004f0578004f04be0000000600ef03b0002c
:10371800889fbe008a9fbe008c9fbe008e1f7800c7
:1037280000057800014778003a00be002a01be0073
:10373800d0b79f00e1b79f00f2b79f0083bf9f00fb
:103748005a089000e00f500002003d006000200081
:10375800500d98008a00780060fb2f000f00400091
:103768008e0e070080017800e28f510009003a00b0
:1037780030002000100d9800b0c9b3000047470082
:1037880000c42500e14f57000c003e00c0c32500cf
:103798000a003700e08f51000e003400300020008e
:1037a800100d9800b0c9b3000047470080c4250039
:1037b800e14f570001003e0040c42500ea00900098
:1037c800b0487800b06878001040780090409800c1
:1037d80002013700e08f510004003a0062fb2f001d
:1037e8000f01410003197800f80037006022b80083
:1037f8006033b8005fb09700efb097007fb19700d3
:103808008fb99700b1110700e00f500009003d0083
:103818005fb29700efb297007fb397008fbb970016
:1038280007f0a200d4b79f00e5b79f00f6b79f0046
:1038380087bf9f003f9a9700cfa2de0072592700ea
:10384800030020000400be001d130700026a2800c0
:1038580013002000d702070064015000b29f9f00a8
:1038680018003b0063011100c0ff2f000004610035
:103878008802ea00b59f9f000006eb00cdc4250032
:103888005fb09700efb097007fb197008fb99700ae
:103898000900370061026400050032004362dd0060
:1038a800048246005403be004402be008d12070085
:1038b8000884d1000c06e800e00f5400f5ff3c0036
:1038c8001f003700e00f510023003200c8ff2f000f
:1038d80008046100b89f9f006022b800060020001d
:1038e80007ff23000006eb00cdc425000400be003e
:1038f8000601be00090037006102640005003200bd
:103908004362dd00048246005403be004402be0048
:10391800741207000884d1000c06e800e00f540078
:10392800f5ff3c000002be000203be005fb0970036
:10393800efb097007fb197008fb997006d1107001e
:103948000002be000203be00d4b79f00e5b79f0087
:10395800f6b79f0087bf9f005a09900060c6b30062
:10396800804f5700040032006100200060c4b3009b
:10397800804f570002003a00bf9a9700ea80420041
:1039880082814000f38f5100010034003301200090
:1039980002c3b300827f9f009dfb2f008f864600e5
:1039a800824578000e43780086ef9f000307780071
:1039b800350037005fb09700efb097007fb19700f0
:1039c8008fb99700091207000004be006807570066
:1039d8004240a90012003400301207000002be0065
:1039e8000203be005fb09700efb097007fb1970069
:1039f8008fb99700b01207006022b80046782d00f2
:103a080077192400371207000002be000203be0027
:103a1800d4b79f00e5b79f00f6b79f0087bf9f0008
:103a2800e88646008c0020000801be000c00370024
:103a3800a40020000500200000fe2f000f00400019
:103a4800d60c07000fb097009fb097002fb19700d2
:103a5800bfb1970005c3b300856641000001be00f1
:103a6800e00f5100e08f5900040034000c06e90013
:103a7800efff3b00010037008b6678000c06e90079
:103a8800fdff3b00e8864600e00f57000a003400bf
:103a98006022b8006033b8005fb09700efb09700bd
:103aa8007fb197008fb997000d110700800078004b
:103ab800e08f5000bfff3c000fef970092fb2f00f4
:103ac8000f014100828256003f9b97006703430025
:103ad800b69f9f0000c3b300050037008502e900c8
:103ae800bf9b97008703e900b79f9f000201e8008a
:103af800924f1000f9ff3200da08900060c6b30058
:103b0800804f57000300320060c4b300804f570055
:103b180003003a003f9897008001e8000900370049
:103b28001300200050c6b300804f57000500320034
:103b38000e40780050c4b2008081fb008301e90088
:103b4800cf19de0081814100858f510001003400ca
:103b580085017800e08f51001c00350004c3b300d4
:103b6800858f510006003d00e2c07900694242009d
:103b780040c3b30080cf500001003c0069425200ae
:103b880083027800010037008301e9008502e9001b
:103b98008500410011437800844f5300faff32003a
:103ba80090c3b300804f520001003a008648e800f5
:103bb800e08f520005003d000201e9008301e800a2
:103bc800bf9897008100e800b19f9f008e00fb001e
:103bd8003f9a97000a007800060007004f07780010
:103be8004f06be004f05be004f04be00ef03b100f4
:103bf800000006000e00fa00889fbe008a9fbe00e3
:103c08008c9fbe000004780081447800020678008a
:103c18000305780084057800e00f550002003c0099
:103c28001a0020002c47260060c6b30080cf54003d
:103c38000e00320060c4b30080cf54000b00320085
:103c480070c6b30080cf54000300320070c4b300c4
:103c580080cf540081003a00e48f45007f00350092
:103c680058089000808f55007c003d008b05e800c7
:103c780060c6b30080cf54001000320060c4b300a7
:103c880080cf54000d0032000810900068006000da
:103c980004003a0058089000800f550001003d00cc
:103ca8005a0c9800580890000b005000500c9800cf
:103cb80002003b000000eb00500c98001808900030
:103cc800e8009000e08f550026003c0002c3b300d6
:103cd800827078000000e800100c9800d808900066
:103ce800e08f500003003c0088109000e8806000de
:103cf8000500320068019000e1c2b300017178004c
:103d08000000e800100c9800580890008b00ea00aa
:103d1800810f500001003d008005ea008b00ea0099
:103d2800210c9800808545005b0c98008a8f55000f
:103d3800010034008a0578003b0c9800e8009000e8
:103d480018089000008040000b0178008c00780073
:103d5800d7030700580890008b0550004b0c9800bb
:103d6800910037008b0f550018003d00008040007f
:103d78000a0178008c007800cd03070098089000ad
:103d880081004500110c98000a8555002a0c9800fe
:103d980058089000e00f500003003c000810900005
:103da800680060000600320068019000e0c2b300bd
:103db80000f17800380890000000e800300c980006
:103dc80058089000400c98007700370000804000a9
:103dd8000b0178008c007800b503070018089000e4
:103de80000804500100c98000b055500d80890007d
:103df800e08f500003003c0088109000e8806000cd
:103e08000500320068019000e1c2b300017178003a
:103e18000000e800100c980058089000800f55002a
:103e28000100340000057800e800900018089000b0
:103e3800008040008b0046000a0178009c030700c0
:103e4800180890000a004000100c980058089000cc
:103e58000a0550002a0c98005300370018089000f3
:103e6800e80090009c7078000000e800100c9800b2
:103e7800d8089000e08f500003003c0088109000a4
:103e8800e88060000500320068019000e1c2b300dc
:103e9800017178000000e800100c980058089000a4
:103ea800e00f5000100034000a05e900800f5500ab
:103eb8000100340000057800e80090001808900020
:103ec800008040008c00e8000a01780078030700b1
:103ed800180890000a004000100c9800580890003c
:103ee8000a0550002a0c9800e80090001808900075
:103ef80000804000095878008006e800e08f5500ef
:103f080004003500b1c2b300014878000d067800fe
:103f180004003700d1c2b300014878000d067800cc
:103f28008b05ea008004eb000b003700a20020009c
:103f38008b007800708057004e0b07000fbd97006c
:103f48009fbd97008b4078007a80570001f07c0075
:103f58008904e8008a057800e08f5500f3ff3c00eb
:103f6800e08f540009003a000d06780000c3b30042
:103f7800005e7800050037008904e9007a8157005f
:103f880062c07c0001c3b300015e4000e08f5400b2
:103f9800f9ff3a00e80090001808900000804000ff
:103fa800000656003c0c9800081090007400600051
:103fb800f00f50000e003a0098089000780090002a
:103fc80000804000a808900001004000b808900058
:103fd80001004000c808900001004000f808900067
:103fe800810f500002003d0000805000000c980036
:103ff8004f06be004f05be004f04be000080fa0009
:10400800000006000000fa009540a90041e2a9005e
:104018008540a9000080fa00000006000600fa00aa
:10402800000f780011079800220798001e007800fa
:10403800101288001e009000201288002e009000a8
:10404800001288000080fa00000006000000fa0054
:1040580040c2a9001112800000402000808060004a
:104068000000eb00808f50000200320040128000f8
:104078000300370041128000f00f2000008060002c
:104088000080fa00000006000200fa00000f780025
:104098001112800000402000808060000000eb00ca
:1040a800808f5000030032001e0078004012880004
:1040b80003003700f00f20001e0060004012880047
:1040c8000080fa00000006005400f800a1028800f1
:1040d8008002780062004000e08048003549ba005c
:1040e8003204e0000410a700100032008301e90048
:1040f8000e0032002549ba003204e0000410a7007f
:104108000a0032008301e900080032000408a30015
:10411800eeff320015c9ba003204e0000410a7000f
:10412800020032008301e900e8ff3a005400f90078
:104138000000060003f0a200889fbe008a9fbe0010
:104148008c1f78002a010700310133006450e10018
:104158004f0032006420e1005200320003826c00fc
:1041680007003b000905d0000306d000820f540069
:104178000c065d0002003900020032008901780057
:10418800030678008582550004003d000003fd0009
:104198008103fd008502ea008b854200840f7200ce
:1041a80002003b0060001000e08018006011b800b9
:1041b8000005eb007a28e1000a00390006007800c3
:1041c800c75ddd00f707b200878075002d00370056
:1041d800828171000a017800610560008180d10048
:1041e8000080d3008502e900f9ff3b000604400087
:1041f8008784480002003b0060041400e0841c002f
:104208000988a300070032008a8171008281710049
:10421800610164008904d1000884d3008b05e8009b
:10422800170037000978a30013003a000b00e000dc
:10423800130034008b05e9000804440089844c000d
:104248000a4474000978a3000d003a000b00e0004e
:10425800070034008b05e9000804440089844c00f9
:1042680001003a000b0020000978a300f7ff320094
:104278000001eb0002003700828171000a0178001a
:10428800a00007000cf0a70001f0a000e90037002b
:104298006420e10002003a00838f6c00e9003300db
:1042a8000801be000200be00e2003700889fbe0081
:1042b8008a9fbe008c1f7800cd000700d400330011
:1042c80003866c006450e1002e0032006420e10097
:1042d800330032006150e1002f0032006120e1001c
:1042e8003100320085855500eb07b0000900200039
:1042f80008042000050037000804440089844c00a5
:104308000a0031000603430087834b000001530075
:1043180081815b00f8ff33000203be000800a000a3
:104328000804440089844c00f6ff3900c639dd00d2
:104338008301730001003200130020008904d100ba
:104348000884d3000998a300050032000800a700dc
:104358000300a0008904d1000884d3008b05e8007d
:104368008904d1000884d3000001eb000281d20047
:104378006400070001f0a1000cf0a70001f0a00004
:10438800ac0037006420e100ae0032000801be0036
:104398000200be00f7ff37006120e100a9003200eb
:1043a8006000b800f3ff37000000200001f8270084
:1043b800f0ff3700839f68000100e00002003d0025
:1043c80060001000e08018000300e00002003d00db
:1043d80060011100e0811900d10007004f00e000e2
:1043e80002003b0060001000e0801800000006009a
:1043f80014002000dd003700f4ff2f00db00370039
:104408000001be00650007000470a70003f0a100ca
:104418006509b100160032000d0035006828e1007a
:1044280006003500f0ff2f00f1ff27000300e00031
:1044380013003b00010028000000050000004000b8
:10444800818048008502e900fcff3a000800370037
:10445800f88f420002003c008000eb0000000500dd
:104468008100d1000080d3008502e800fcff3a00fb
:104478000300e00002003b0060001000e08018002c
:10448800000006000001be00440007000470a700f9
:1044980003f0a10003f8a30013003a006509b10076
:1044a80010003200090035006928e10002003500db
:1044b800010028000000050000004000818048003d
:1044c8008502e900fcff3a0000000600f88f420070
:1044d800050035008100d1000080d3008502e80086
:1044e800fcff3a00000006008000eb000000050019
:1044f8004f89de0082017800b70037006011b800ec
:10450800c500370081002000618055000b003d0088
:104518000b00200061fe2f000100e1001d003400a7
:1045280082817100610164008904d1000884d3008c
:104538000000e800faff3a00710020006100640002
:1045480003007000020060000900320061044400aa
:10455800e0844c000988a500050032008b05e800be
:104568006808e10002003a008904d1000884d300f9
:10457800f20f20000258e10005003d00c75ddd0094
:10458800f907b2008980750008007800000006006d
:104598000bf827008b00780000000500c70ade0032
:1045a800f107b200f50fb20008003200e1cf420077
:1045b800020032000170a00024000500810f700085
:1045c800010032000408050044000500810f700056
:1045d80002003a00140005008502e90000004000ce
:1045e80081c04800fcff3b000170a00024000500ca
:1045f8000004be00e9ff07000003be000405be007a
:104608000200be00e5ff0700844f750000000600a9
:104618000200be006450e100050036006420e1009d
:10462800020036000968a30001003a000800be0035
:104638000160a0004f0678004f05be004f04be0081
:1046480000000600f0ff2f00f1ff2700f9ff3700f8
:10465800889fbe008a9fbe008c1f7800e4ff070079
:10466800ebff330003866c006450e1002400320045
:104678006420e100270032006150e100220032008e
:104688006120e100210032008b854200eb07b10078
:104698000134b800003ab8000804420089844a008e
:1046a800013ab8000030b8008880400009014a008b
:1046b80004003300000040008180480002014900e6
:1046c8008b05e900c909dd00830170000100320093
:1046d80013002000c814de004814dd004709de007e
:1046e8001200b200c808de000884700085ff0700c9
:1046f80001f0a1000cf0a70001f0a000cdff3700e9
:104708006120e100cfff32000801be000200be00b8
:10471800f7ff37006150e100fcff3a00c9ff37009e
:104728006022b800060220000000d0008180d2007c
:104738000482d2008582d2000000a000020252004a
:1047480083825a00030031000202420083824a0039
:104758000000a1000603e900f3ff3a00000006008c
:10476800efff07000400be0000000600889fbe009f
:104778008a9fbe00841f78009dff07004f007800c5
:1047880011003300f0ff2f00838f6c0006003b0000
:10479800040565000a00a7000800370009f0a60014
:1047a8001000200008003700820f5400838f5c003f
:1047b800030039001000200001003e000000200026
:1047c80009f0a7000000ea004f05be004f04be0034
:1047d8000000e00000000600881f7800030478004d
:1047e8000300e00007003d0060001000e0801800b2
:1047f80060011900e081190002003b0001f02d0062
:10480800030037000400070008f0a70001f0a0002b
:104818004f04780000000600889fbe008a9fbe00f3
:1048280000827000040271000482710026003200c8
:104838000004be000200be006011b8006b09200031
:10484800950220000182cf000a0039000541b1001d
:104858000082cf00070039000541b1000982cf006e
:10486800040039000541b1000882cf000100390079
:104878000541b10005425200120032000a003b0017
:1048880082817100610164008100d1000080d30041
:104898008984d3000884d3008b05e8000442e8002b
:1048a800f7ff3a00070037000804440089844c00e9
:1048b80000004800818048008b05e9000442e900b7
:1048c800f9ff3a000fff07004f05be004f04be0076
:1048d8000000060010002000b801070010002000aa
:1048e800000007000200fa000800370001814000bc
:1048f80063208300630179008100e80071208b0048
:10490800f0bf9f00020001007fb89700712083006c
:1049180082208300828f5000f4ff390081d2250065
:1049280061208b002102200081208b00f20c0700ff
:10493800e00f50002f003200c0017800e38f5100d3
:104948002c003600e18061002a003a00d120830063
:10495800e08f500002003200810f50000400310047
:1049680011009800d0208b001600370082007800d4
:1049780011019000e00f510002003200800f510039
:10498800faff39001102780084824000850f500038
:1049980018003900808f520003003a008308420053
:1049a8000100780007003700e00f510003003200d3
:1049b80083014000830f51000e0039001200980057
:1049c8009000980090009000e08f5000090032009d
:1049d80010014000828f500006003a0082412600f4
:1049e8000009eb00100178001108410091009000c7
:1049f80011009800000006000400fa00889fbe001d
:104a080040ca8200e00f500001003200000001009f
:104a180030ca820091208300808f5000320032001b
:104a28008040eb0090cf100002003a00a602070079
:104a380030ca8a00668157002100200030ca8200ef
:104a48002902070000047800a2002000e88057002f
:104a580008007800d3010700a0208b00b1208b004c
:104a68004fb99700080451005fb99700820f5400ae
:104a780009003a00d2ae2f00f3ff2f00820f50003a
:104a8800838f58000400350032512000820f5000f7
:104a9800e08f5800030034006000b800a0208b00ad
:104aa800b1208b00a8208300b9208300c2f92f0011
:104ab800f3ff2f000800be003efe07008202200020
:104ac800030020007e0e07000000440081804c0097
:104ad80060001000e0801800a0208b00b1208b003f
:104ae80030ca820090208b0042fc2f00f3ff2f0079
:104af800a0208300b1208300710e07004f04be0080
:104b08000080fa00000006000400fa001001be0050
:104b1800e2bf9f00f3bf9f00b7ff07006fb9970080
:104b2800ffb9970000014100818149008080eb00b6
:104b38000000eb00940307000080fa000000060064
:104b4800889fbe0000047800c1208300e08f5000d9
:104b580002003200010078000d003700d1208300e8
:104b6800a041260004003700910f540024003600ad
:104b78000180e80091009000e08f5000faff3a00b1
:104b880010003700920f54001d0036000280e80024
:104b980010017800e00f5100faff3a001101780087
:104ba800d1208300a041260004003700910f540053
:104bb800130036000180e80091009000828f5000b9
:104bc800faff3a00e9208300888f54000100310081
:104bd8008804780009007800b9010700e00f500048
:104be80004003a00888f5400050032008904d1007f
:104bf800f5ff3700091878004dff0700d2ff37008e
:104c08004f04be0000000600881f7800800078006e
:104c1800638440000800a1000000eb00810f5400ed
:104c280021003600e30f540001003e004800200038
:104c380008007800c2ff0700e00f50001a00320099
:104c4800900078009101780064815100880f51002c
:104c580003003100110190000208780007003700b6
:104c68000881400002087800910190001301980023
:104c780010017800110914008808780010007800e5
:104c8800e00f50000600320010019000e00f5100c4
:104c9800020032000080e8000100370002007800be
:104ca800c0208b000180e8004f0478000000060057
:104cb8008001780002003700b15978000201e9004c
:104cc800e00f5100fcff3a00000006008001780068
:104cd80002003700815978000201e900e00f510015
:104ce800fcff3a00000006002000fa00889fbe0082
:104cf8008a9fbe008c9fbe0000067800cc01900001
:104d0800c2002000809fbe00110009008201d80067
:104d1800000178004f00be0044ff2f000492b90044
:104d28008481410002003b00ec8141000201e9005e
:104d38005c049000e00f510007003d0004002800cb
:104d4800020252000080eb008080eb00840f5400c8
:104d580009003d0094003700e00f510006003200c2
:104d6800f4ff2700020252000080eb008080eb0075
:104d7800880f52008c0035008806410083007800b7
:104d88000d007800ea0207000000e900cf80de008d
:104d980001017800820178003c029000cfa2de0079
:104da80005037800860378000004420081844a00e5
:104db80002054b0083854b00e8af9f00f9af9f00c9
:104dc8008ab79f009bb79f002c009000cf80de0021
:104dd800010178008201780004e12000050020002c
:104de8006033b800b60e0700a0b79f00b1b79f00a8
:104df800c2b79f00d3b79f009c00900001047800c1
:104e0800cfc4de00090578008a057800c4032000b5
:104e1800050020006033b8000800be000a01be008b
:104e2800a70e07000203be000002be002fb09700c5
:104e3800bfb097004fb19700dfb197000002420062
:104e480081824a0002034b0083834b001c007800d8
:104e580000047800cfc4de00090578008a057800d0
:104e68000400440085804c0006014d0087814d00f8
:104e7800a0b79f00b1b79f00c2b79f00d3b79f00ec
:104e88000d047800cfc4de00090578008a05780093
:104e980004382300151e20006033b8000800be0047
:104ea8000a01be00860e07000203be000002be0013
:104eb8002fb09700bfb097004fb19700dfb19700b0
:104ec8000004420081844a0002054b0083854b00a0
:104ed80004182500150020006033b8006fa897005b
:104ee800ffa897000fb197009fb19700740e0700b5
:104ef80008024000898248000a0349008b83490060
:104f08000400be000601be0084bf9f0095bf9f003d
:104f1800e6b79f00f7b79f002ffe07006011b800a3
:104f280033fd0700000178000080eb008080eb0073
:104f38000fba97009fba9700e00f51001a0035008a
:104f48000018280051c52700040240008582480047
:104f58008c0890000401be000c00780084bf9f00fc
:104f680095bf9f00880207000c0890000fba9700b1
:104f78009fba9700e00f500004003400001f2f0074
:104f8800f1ff2f00040240008582480084bf9f0083
:104f980095bf9f0098fe07000fba97009fba970029
:104fa8000000520081805a004f06be004f05be0027
:104fb8004f04be000080fa00000006000800fa0056
:104fc800889fbe0080047800110020000900780046
:104fd8003e00070000047800e10f4400350032006d
:104fe800e10f540035003200e00f54000600320093
:104ff8008000eb0009007800340007000900780001
:10500800080001002d0037006022b8006033b800a6
:10501800a4bf9f00b5bf9f00c6bf9f00d7bf9f001a
:105028006148b90061005000e0805800e50f500069
:10503800e08f58001a003e000060010005003700ac
:105048000d00370009003700050037000d00370054
:105058000f00370010242400214525000e003700da
:1050680060042500510422000b00370090c424007e
:10507800c10422000800370090e424004105220002
:105088000500370030552400716425000200370000
:105098004055240021d52400a0bf9f00b1bf9f0028
:1050a80061b825006c805700cb0207001000200073
:1050b8000cfe070008007800010037000000eb0034
:1050c8004f04be000080fa00000006000001e9005d
:1050d8000080eb00e50f510006003e00808f500075
:1050e8000400320002014100433b260063007900be
:1050f80081317900000006000600fa00881f780058
:105108000004780040ca8200e00f50000700320017
:10511800c1bf9f00d2bf9f00e3bf9f0000000100f6
:10512800efb997005fb99700cfb89700e4912500d1
:1051380008007800940107004f0478000080fa0006
:105148000000060080007800010037008100e800b8
:105158000041eb00914f1100fcff3a000080500025
:1051680000000600800178000300370084597800a9
:105178008100e8000201e900e00f5100060032005a
:1051880011427800e04f5200f8ff3a000200370061
:105198008059eb000201e900e00f5100fcff3a00e2
:1051a80000000600e6874700889fbe008a1f780037
:1051b8008e1f78000005780001077800e00f57007f
:1051c80001003a006c8757008a0478000100370014
:1051d8008904e800194478000800fb00b2bf9f006a
:1051e800680207003fb99700e00f5000f8ff3a0047
:1051f800d0c2b300804f54000300320000c0e90061
:10520800804f540002003a008904e800010037008a
:10521800004478008e00780009007800b500070087
:105228009e8f540001003a000a0f78009e0f550027
:1052380003003a00e00f5000e08f58000f003a00da
:10524800b2c2b300824f540004003a00e00f50008d
:10525800e08f580015003d0008003700d2c2b300a7
:10526800824f540011003a00020020000300280079
:10527800820f5000838f58000a0036002002200059
:10528800a0228b00f0ff2f00f1ff2700d2c2b3004d
:10529800824f540005003a00000020000100280059
:1052a8000200370060001000e08018004f07780007
:1052b8004f0578004f04be006f00b10000000600e3
:1052c800800078000000eb00808f5000050034005b
:1052d80001007800930a0700e10f400001003a003e
:1052e8000000eb0000000600889fbe008a9fbe00f9
:1052f8000004be000205780018407800e04f500016
:10530800010032000804e8008005fb008b007800eb
:10531800080078007d020700e00f500003003a0003
:105328000800780087ff070000004400e08f540061
:1053380002003c00080d5000090037008040eb00d7
:1053480090cf100003003a00000deb000004780035
:10535800030037008904e9000004e800ebff370088
:10536800080078004f05be004f04be00000006008c
:10537800889fbe008a9fbe000004780019002000a4
:10538800cb342600184578000a00fb00f30107001b
:10539800e00f5000370032008af57c000980450094
:1053a800b8407800414098008904e800e38f540031
:1053b800f4ff340018407800d1c2b300814f500088
:1053c8000300320081c0e900814f500002003a001a
:1053d8000804e80001003700014078005135260034
:1053e80080487800984078000101fb000203b10072
:1053f8000000eb00e90f51001e003e006235260058
:1054080001497800d84078000101fb000203b1008f
:10541800e90f510017003e0070352600014878005a
:105428005800fb00cd010700e00f50000c003200cf
:1054380059002000cb342600184578000a00fb00ec
:10544800c6010700e00f50000a0032008af57c0010
:105458000804e8008904e800e78f5400f6ff3400e8
:105468000000eb008040eb0098cf100001003a00ec
:10547800c03426004f05be004f04be0000000600e1
:10548800a03626003b0a070090228b00e00f500050
:1054980007003a0030372600360a070090228b00b2
:1054a800e00f500002003200b1ff070090228b008d
:1054b80090228300e00f500002003a006037260077
:1054c80090228b0000000600881f780008452600ff
:1054d8000040eb00984f100003003a00e8ff070077
:1054e80020c0b300004c7800902283004f0478005d
:1054f80000000600f2874700889fbe008a9fbe0012
:105508008c9fbe008e1f7800d0b79f00f1b79f0018
:105518000203780000077800010037000e07e80052
:105528001e4478000800fb0086bf9f009501070015
:105538000fbb9700e00f5000f8ff3a00c8ef9f003c
:10554800d3c2b300834f54000400320083c1e90082
:1055580008407800834f500002003a000e07e80028
:1055680001003700c3ef9f00e00f5300050035002e
:10557800e10f53000300320043022000830f530061
:10558800070034006044b800ffb09700e08f500077
:10559800760032005fb19700820878007300370008
:1055a800e00f53000e003200f00f53001a003a00cb
:1055b80003c3b3009ecf110017003a009e4190002c
:1055c80085c7b30085cf51000300320085c5b300fd
:1055d80085cf510010003a000e87e8000e00370012
:1055e800a600200003c3b3009ecf11000a003a00b2
:1055f8009e41900082c7b30082cf51000400320060
:105608008600200085c5b30085cf510002003a000e
:105618000e87e8000601200003c3b3000e007800df
:10562800010037000000e80090cf1100fdff3200b4
:1056380080067800adb79f006044b800e0cd250033
:10564800a0e79f006135b9000e003700afe0970072
:10565800014650000a01be000800be0086bf9f0038
:10566800970b07000c02fb00cfa2de008d06e800b6
:10567800b8b79f00c9b79f0004044000858448005c
:105688000fbb97001d00fb0086bf9f004501070068
:105698000fb9970080007800e0cd2500d4050700f9
:1056a8000fbb9700e00f5000e8ff3a008d0f57003e
:1056b80007003a006044b800ffb19700e08f51003e
:1056c8002a0032005fb09700800978002700370071
:1056d800afb097008181560030d0250060407b0034
:1056e8000000fb00008051001600330010003a0053
:1056f8000c02fb00cfa2de000402540085825c008d
:10570800840f5400858f5c00090039006131b900ad
:105718000400be0002fc07000001be003fb0970075
:10572800cfb09700800f5100818f590005003200db
:1057380020022000a0228b000084eb008084eb0074
:1057480006003700d0c2b300cfe8970080cf5000e2
:1057580002003a0060041400e0841c007fb1970046
:10576800e00f5100010032000d0978000800be006a
:105778004f0778004f06be004f05be004f04be001d
:105788002f01b10000000600af02b000889fbe00e4
:105798008a9fbe008c9fbe008e1f780080bf9f002e
:1057a8000106780002047800f3b79f00e4b79f0071
:1057b8000800780063fe0700000578008fbe970098
:1057c8008005eb005ec2b300460037008b05e90098
:1057d8000b814500a0fc2f000f0040000201400093
:1057e8001204900042059000184178008284fb0062
:1057f8008904ea00cf4cde0009044400090555007d
:105808008e4f510002003a00e00f550004003a00a4
:10581800890f56003d003900890054001e003700ea
:105828009844780052c4b30082cf54000300320079
:105838006a41410082cf540002003a000804e8009f
:10584800010037008044eb0085fd2f008f82420065
:10585800a4fc2f000f02420098417800094178000b
:10586800efb097007fb097004f02070080007800e4
:10587800e0cf5400010032000a05e9000804e800fe
:105888000a05e900dfa49700e08f540008003400ff
:10589800890f56001d003900090178000d007800b5
:1058a80003fd070089864600090656000d003700eb
:1058b800e00f550009003200e28f550007003e0056
:1058c8000b814500a0fc2f000f00400002014000a2
:1058d800180198004a0198008b05e8000905ea00bc
:1058e80001047800e00f5500bfff3a00e08f550033
:1058f800b6ff3a00e00f5600060032008b4e7800e3
:105908008fb8970001805600030037000000eb00b5
:10591800010037000c0078004f0778004f06be00e2
:105928004f05be004f04be00af02b10000000600e4
:10593800e00f5000030034000001e9004291de004e
:10594800060037000001eb00e30f400003003d00b4
:10595800640110004291de000201e8006302600069
:10596800c305260004003a0043072600e00f500054
:1059780001003a00c3052600818040008181410072
:105988001300410000000600e6874700889fbe001c
:105998008a9fbe008c9fbe008e1f7800000678008c
:1059a80008e82700a93a28000204440083844c0030
:1059b800e00f560001003a00ac302600010e9800b6
:1059c80000e1200001002000080140008981480012
:1059d800f2b79f0083bf9f00021825001300200024
:1059e8000800be004efb07000005be006100400035
:1059f800e080480072002000030020002a0a070007
:105a080060069800d2162000030020000a00be009d
:105a180068fa070080067800010037008d06e90063
:105a28008000eb000d007800c1ff07000007780038
:105a38006168b900d216200003002000a00a070000
:105a48006171b9000000410081804900800f550054
:105a5800818f5d00f1ff35000005550081855d00ef
:105a68005d0698007a06980063806600c1052600e6
:105a780004003a0041072600e08f560001003a0072
:105a8800c1052600c00020000000e9000002400017
:105a98000482400014017800cf91de00820f550087
:105aa800838f5d00f8ff3500400698000a00e80083
:105ab800140050003006980002182500130020003a
:105ac8000800be0026fb07000004be0002e120001b
:105ad8000300200012fb07002006980002e12000c6
:105ae800030020000800be001dfb07000004be00e4
:105af800c20320000300200009fb070010069800dd
:105b0800c2032000030020000800be0014fb0700a9
:105b1800000e78000c089000e00f500005003d00d2
:105b28000c007800c7030700000e9800e00f500033
:105b380007003c000c0078004f0778004f06be00b5
:105b48004f05be004f04be006f00b1000000060004
:105b58007fb497008fbc97009fff37001004b100f7
:105b6800070035009001b100040034007000b10056
:105b7800030035009001b10001003c001000050051
:105b8800000005006900e100040035006d00e10037
:105b9800030034000002b1000100320000000500db
:105ba80010000500800078001104b10003003500e2
:105bb8009101b10001003c000050a0000000060067
:105bc800b0228300e00f5000010032000000010005
:105bd8004045260000000600889fbe008a9fbe0040
:105be8008c9fbe0080057800010578000d402000dc
:105bf8002e003700ca0090006a009000808f500085
:105c0800040039000a0078008e040700e00f5000f5
:105c1800390035001a8066000a003200a100200011
:105c28000b0078004200070000067800e00f5600dd
:105c3800040032006184150008044600cfc4de0069
:105c4800040037000b0078003efd07000004be008a
:105c58000006eb004a0090006a0190000001510024
:105c6800cf91de00880f5100898f59000200310062
:105c78000204be000006eb000801be008b0078009d
:105c88000bfc07004a0090000800400040059800ff
:105c9800e00f5600040032000a00780000040700f4
:105ca800e00f500014003a00888545000040eb00e2
:105cb8009b4f1000cfff3a00008020001a006000c0
:105cc800060032000a007800f5030700800078001b
:105cd8000080eb00e08f500008003a0000c0200070
:105ce8001a006000050032004a0090006005980024
:105cf8000000eb00010037000080eb004f06be00fb
:105d08004f05be004f04be00000006000300370028
:105d1800e04f5100050032000000e8001041780013
:105d2800814f5100faff3a0000000600000005000c
:105d38008001eb0010417800814f510001003a00ca
:105d480080017800e04f510002003a00030078001b
:105d5800000006000000e800f6ff370080805000d1
:105d6800e78040006701410073002000110009002e
:105d78008300d80001005100110009000300d80079
:105d8800000006000200fa00889fbe008a9fbe003d
:105d98008004780081057800a2002000ea8057007e
:105da8000b007800fffc07003fbd9700280020008b
:105db8008a8f55002d0032009a457800f2c2b30050
:105dc80082cf550029003a00d9019000c276200000
:105dd80002814100cf91de00820f5000838f58006e
:105de8001d003a000a05e800a2002000ea805700da
:105df8000a007800ebfc07003fba9700840f5500b3
:105e08001a00320094cf150018003a00490190009a
:105e18000201e800cf91de00820f5000838f580006
:105e28000d003a000400e800a2002000ea805700b4
:105e3800dcfc07003fb99700820f55000b003200c9
:105e480039019000cf91de000004eb00820f500072
:105e5800838f58000500320018002000800f510081
:105e6800818f590001003d000084eb000800780094
:105e78004f05be004f04be000080fa000000060077
:105e880000000500889fbe008a1f78000005780082
:105e980081047800090178008a0078001000200049
:105ea800aeff070000047800f5ff070000825400e9
:105eb8003a17b0008904550072002000809fbe0088
:105ec800110009008204d800810478004f00be0048
:105ed800d31620008981410080814100811f78000c
:105ee800110009008201d80081017800cf007800f4
:105ef800b0162000800f520003003400e28f5100da
:105f080003003a000f003700800f520003003a00e8
:105f1800e38f510004003a000a003700a016200061
:105f2800800f520002003a00e48f51000500320051
:105f38008984e900e28f540003003e000804e80069
:105f4800010037000084eb00080078004f05780056
:105f58004f04be0000000600881f78000004780087
:105f68000100780082007800c6ff0700e00f5000ab
:105f780002003a000804e90003003700e00f50006f
:105f880001003c000804e800080078004f0478008d
:105f980000000600889fbe00800478000104780095
:105fa8008800780009007800b6ff0700e00f50006d
:105fb8000b003a00b2ff070080017800d2162000db
:105fc800e08f5100010032000201e80067804400c0
:105fd8000800500082007800aaff0700030037007d
:105fe800e00f500001003c00100020004f04be00ec
:105ff800000006000200fa00889fbe008a1f780091
:10600800000578000204780081047800e08f5400cd
:1060180001003d008004eb00f1c4b300814f520041
:1060280009003a000301780089007800150078001b
:10603800c3bf9f00acfc0700cfb997008000eb00fe
:10604800938f10000e003c00880978000800450076
:106058000048eb00a200200007003700801f7800ee
:10606800110009008204d800800478004f007800ed
:1060780003c3b30003e040000804e900f7ff3b0056
:106088004f0578004f04be000080fa0000000600ab
:10609800e4874700889fbe008a9fbe008c9fbe0091
:1060a8008e1f780080067800010778008005eb00d5
:1060b800dac2b300b9c2b3002b0037000806e80003
:1060c80070815700110020000c00780086fc070042
:1060d800800078000d0078002aff07008001780012
:1060e800184178008a4f510002003a008301e80005
:1060f80002003700894f51001a003a00e18f510021
:1061080018003e0070815700210020000c00780024
:1061180075fc07000001780012407800984f500085
:1061280004003a0012409000a3c2b300834f50000d
:1061380016003200820078000d00780011ff070079
:1061480080017800184178008a4f5100030032001e
:10615800894f510003003a008301e800e18f5100a4
:106168000a0036008b05e800708157008b00780024
:106178001e0078005cfc0700000478000040eb007b
:10618800984f1000cdff3a00a813260008007800a9
:106198004f0778004f06be004f05be004f04be00f3
:1061a8004f00b10000000600ec874700889fbe0042
:1061b8008a9fbe008c9fbe008e1f78000006780064
:1061c8008105780002457800840478008506780007
:1061d8000300fb00cf80de005002b1000180b10057
:1061e80052052000820f5000e08f5800f8013e0051
:1061f80000600100f2013700f5013700f4013700b3
:10620800f3013700f2013700f1013700f0013700e0
:10621800ef013700ee013700ed013700ec013700e0
:10622800eb013700ea013700e9013700e8013700e0
:10623800e7013700e6013700e5013700e4013700e0
:10624800e3013700e2013700e1013700e0013700e0
:10625800df013700de013700dd013700dc013700e0
:10626800db0137003e003700450037005300370098
:1062780071003700d60137008200370090003700e0
:106288009a003700a0003700d1013700d00137004d
:10629800cf013700b4003700cd013700cc013700fb
:1062a800cb013700ca013700cb003700ce003700da
:1062b800d8003700e5003700e8003700f80037005d
:1062c8000501370065013700b0013700c00137000c
:1062d800bf013700be013700bd013700bc013700e0
:1062e800bb013700190037007b0037002a00370050
:1062f8004a00370054003700b50137006500370001
:1063080075003700b201370087003700b001370049
:10631800af0137008c0037009a003700ac01370016
:106328009c003700aa013700a2003700a8013700f7
:10633800b4003700bb003700a5013700d100370093
:10634800dc003700ef00370069013700ec009000ef
:1063580081804000090178002b009000050037007b
:10636800ec009000818040008100e800090178007d
:106378003b009000dcfb0700000478009a0137001e
:10638800cc009000818040008100e800090178007d
:106398006b009000f7ff370050c4b300804f5500e2
:1063a80002003a005b089000010037000b089000db
:1063b800090178008000eb00cf00370050c4b3001b
:1063c800804f55000c003a00210220008b804000cd
:1063d8000c0078002eff07000000e8000901780093
:1063e80031002000c0fb0700000478000040eb00eb
:1063f800984f10007c013a00dc0090004206200013
:10640800801f7800110009008200d8008000780001
:106418004f007800f38040004d003700450220000f
:106428008b8242000a42780089017800220020000d
:10643800bc0090002301370080ff2f00800c7800fb
:10644800d813260068013700450220008b824200dd
:106458000a4278008901780022002000bc009000e0
:106468000d007800e3fe07000004780000c3b300c5
:106478009d4f10005c013a0070405000804e78003b
:106488005901370080ff2f00800c7800681426001f
:10649800550137007c019000ec0090005c009000f2
:1064a800adfe070042062000110009000200d800d6
:1064b800e08f500026003d00828040002400370015
:1064c8007c019000ec0090005c009000a2fe0700a8
:1064d800c1762000f5003700cc0090008180400094
:1064e800090178005b009000a2ff370045022000f8
:1064f8008b8242000a42780089017800220020003d
:10650800ac009000ef003700ac009000eb8040003a
:10651800c2002000801f7800110009008200d80006
:106528004f00780009003700fc0090008100e80067
:10653800450220008b8242000a42780089017800d7
:1065480032002000df003700cc0090008100e80016
:10655800450220008b8242000a42780089017800b7
:1065680022002000d7003700450220008b8242001d
:106578000a42780089017800220020009c009000df
:10658800d000370010002000800c7800f814260096
:1065980015013700110020002c009000eb0f50006f
:1065a80001003c008000eb00090178001b00780026
:1065b80070ff370050c4b300804f550002003a0006
:1065c8000b109000010037003b089000090178008b
:1065d8003100200048003700b0ff2f00800c780001
:1065e8001815260000013700450220008b82420062
:1065f8000a42780089017800220020009c00780077
:10660800b000370010002000800c780078152600b4
:10661800f500370080ff2f00800c780098152600c1
:10662800f1003700ec009000e08f500001003a00c4
:1066380071002000450220008b8242000a42780047
:1066480089017800120020009e0037007c0190002c
:10665800ec0090000000eb0014003700fc009000f4
:106668006c0090004bfe0700450220008b82420020
:106678000a42780089017800220020008000780012
:1066880090003700450220008b8242000a427800c1
:106698008901780012002000ec0090008900370082
:1066a8007c019000ec00900010002000abfd07007a
:1066b800edff370050c4b300804f550002003a0088
:1066c8006b089000010037001b0890000901780052
:1066d800110020000800370050c4b300804f550057
:1066e80002003a007b089000010037002b08900058
:1066f8000901780021002000fbfa07000004780057
:10670800790037005c04900042062000809fbe009c
:10671800110009000204d800010478004f00be00ef
:10672800e00f540001003d004806b0002e00200094
:1067380050c4b300804f550041003a0021022000a8
:106748008b8040000c00780051fe070000037800a1
:106758008e0143008040eb0093cf100038003200d8
:106768005c029000c0762000000042006102b9007f
:106778000606e80009017800110020000c007800e6
:10678800e3b79f00f4b79f0085bf9f00d6b79f006f
:10679800d5fa0700a20020008000eb0081fa07006c
:1067a8007fb297008fba97000002520081825a0088
:1067b800d1c2b3005fb39700efb1970096cf100036
:1067c80002003a0060021200e0821a00a2002000d3
:1067d800f880570003007800e3b79f00f4b79f00e4
:1067e80085bf9f006ffa07004fb197002e00200069
:1067f800efb197007fb297008fba9700828f510050
:106808000f003200124178009c4f51000c003a00f2
:106818000000420081804a00000478001e00200029
:10682800010037000e07e800a20020000300200046
:10683800e0f60700e00f5000e08f5800f9ff3c0039
:10684800450220008b8242000a42780089017800c4
:106858000e017800880078001a00370050c4b30091
:10686800804f55000f003a00210220008b80400025
:106878000c00780006fe07000000e8000901780017
:106888004100200098fa070000047800b0c3b30064
:10689800984f1000030032000001eb00990f11001f
:1068a8000b003a00dc009000c07620008080400099
:1068b800450220008b8242000a4278008901780054
:1068c800420020000d007800cafd0700aafe37002c
:1068d800b1032000080078000cfd0700e00f50000d
:1068e80001003200880c5000990cea003e00370085
:1068f8004b1090008040eb0090cf100001003a0050
:10690800f1fa0700090178002100200076fa070053
:10691800000478000001eb00990f110032003400e8
:106928000c089000820f50002f003400a2002000b5
:106938008000eb00080078001afa07004006b00053
:1069480003003300b1c2b300814e78000300370062
:10695800d1c2b300814e78000000ea008d06e8003d
:10696800450220008b8242000a42780089017800a3
:1069780042002000800078000d0078009dfd07008f
:106988000004e900990ce8001700370018002000ff
:106998000c089000e00f500001003c000004eb00e0
:1069a8004b1090008040eb0090cf100001003a009f
:1069b800c5fa070009017800880078006dfe3700e5
:1069c80010002000800c78002816260006003700ea
:1069d800834e78000040eb0090469800200020008d
:1069e800800c78000d047800080078004f077800c4
:1069f8004f06be004f05be004f04be00cf00b100d9
:106a0800000006004052230002013700881f78006a
:106a1800284226000040eb00984f100003003a007f
:106a2800f8ff070020c0b300004c780010002000d9
:106a38004f0478000000060000218300bcf73700ef
:106a4800fdff37000200fa00889fbe008a9fbe0043
:106a58008c9fbe0080047800ecff070040ca8200cb
:106a6800e00f5000010032000000010020ca82003f
:106a7800f1208300808f50001d0032008040eb0021
:106a880090cf10000f003a0030ca820090cf10005b
:106a980002003a008cfa070030ca8a006e8157005b
:106aa8003100200030ca82000ffa070020ca8a008d
:106ab8008040eb0090cf1000020032004194250086
:106ac8008008e90020ca8200360107000004780027
:106ad8000085eb00e00f54005200320000218300d3
:106ae80093f7070008218b0020ca8200f0208b0052
:106af8008000eb00590090008dfb070080057800ae
:106b0800790190007811b900a906900082864600a4
:106b180059009000cf80de00d2162000030020002c
:106b28006706070061004000e08048006159b9002d
:106b3800000041008180490072002000030020000d
:106b4800d90507006e064000082183000005eb0008
:106b580031003700d9019000484090000080fb00c8
:106b6800830f50002b003c00b84090008180fb0050
:106b7800030078006efb0700800078002841900031
:106b88000281fb000b01510001014100984078008f
:106b9800e0cf5000100032008181fb0083015600d5
:106ba8008281410074002000809fbe00110009000e
:106bb8008401d800810178004f00be00e08f5100a9
:106bc80001003200e781110003014100e7cf5000c6
:106bd80001003e00670151007812b9001841900089
:106be8000281fb0004014100828f56000d00350030
:106bf800c84090001848900080cf500004003a0028
:106c0800e00f550002003a001a002000010037008a
:106c18000005eb006504440080c0eb0098cf10002d
:106c2800ccff3a000a0078004f06be004f05be00b0
:106c38004f04be000080fa000000060040ca82002f
:106c4800e00f50000100320000000100e091250033
:106c58000000060080017800a494250082452600e3
:106c6800a101200040232600c7fa07004023260080
:106c78000000060080017800811f780011000900db
:106c88008200d8008001fd00cf007800030878005a
:106c98000299b90002815000120098000000060015
:106ca800889fbe008a1f780000047800e00f540017
:106cb8000e003a0088047800eaba250009804400ea
:106cc8006a007800e00f500004003200f4ff07006b
:106cd800e00f500001003d000084eb008904e8004b
:106ce800e78f5400f5ff3400280037000000220029
:106cf8001800600024003200a80490000f0037003c
:106d080009015100384090000000fb00890078001c
:106d180034040700e00f500007003c0028009000f2
:106d28004004980060049800500c98001890a00047
:106d38000084eb001500370080844400480190006f
:106d4800828f5400eeff390028009000400498001c
:106d58009800780002c020000281600001003a001b
:106d68003800900002002400828060000300320096
:106d7800600498000004eb0004003700500c9800f1
:106d8800010478000100370000047800080078004a
:106d98004f0578004f04be0000000600889fbe0023
:106da8008a9fbe008c1f7800000678000205be008e
:106db8000404be000401be000a00be007df5070001
:106dc800008ebe000801be00bd0507000002550088
:106dd80081825d0024069800350698000c00780032
:106de8004f0678004f05be004f04be0000000600a5
:106df8000400370090cf1000050032000000e800c2
:106e08000201e900e00f5100faff3a0002007800a1
:106e18000000060061472200e08f500008003200a1
:106e280071208300e08f5000050032008100e900e6
:106e380071208b00818040006220830000b17800bf
:106e480000000600889fbe008a1f780000047800b2
:106e5800c8009000680190000000eb00828f50008d
:106e68003c00390018007800220029000201600067
:106e7800e20f51000700320001202400e00f50000b
:106e880001003d0001202000008c70000080eb0014
:106e9800300037000200260002006000820f500018
:106ea80009003a0038009000808f50000600390031
:106eb800080078007aff0700800078000080eb0067
:106ec800e08f500023003a001805780000c0200029
:106ed8000000650018003a00a80490006002200035
:106ee80008004000808f540013003a000020200062
:106ef80045f7070020049800e00f500005003a000d
:106f080029049800490498008904e8003904980085
:106f1800080037000a60a0000a0c780040049800b6
:106f2800012020008080400031049800400c980027
:106f3800500c9800c90207002800900050049800df
:106f4800380090006004980000002600180c7000bb
:106f58000000eb004f0578004f04be00000006005b
:106f6800000178000000eb00050037006a02b90054
:106f780000fd2f0004004000030040000201e8006b
:106f88008100e900060033009201fb0004fd2f0098
:106f980003024200e90f5200f4ff36000080eb00c4
:106fa80000000600e6874700889fbe008a9fbe0053
:106fb8008c9fbe008e1f7800904678008000eb0002
:106fc80081bf9f00e0cf56006d0032000004e8004a
:106fd800080078002a0020008d05fb000200370019
:106fe8000900e8000a05e8008b00780047fb070065
:106ff80080047800e08f5400f9ff3a006550b9002a
:1070080001f70700000778008ebf9f00e00f5700c8
:107018005b0032000e06780081c2b30098cf1000e2
:107028000b003a000800e80041002000ccff0700f0
:1070380041892f00810440004d003300d840900062
:1070480090c2b30080cf500049003a006604440063
:10705800e9ef9f00494698002100200008007800c9
:10706800bfff07008045e9003b4698000884e80018
:107078002100200008007800b9ff07000045e9005a
:107088002a4698000884e8009800fb000103b10034
:10709800e98f500006003e0021002000080078001b
:1070a800afff0700104698000884e8000200370088
:1070b8000040eb0010469800ebcf55002c003e0036
:1070c80031c6b300814f550029003e009c40900016
:1070d80030c6b30080cf500025003e0098407800ad
:1070e800b0c2b30080cf50000500320000c0e800f5
:1070f80080cf500002003200004eeb000f00370036
:107108001841900000cdb30080404100e6cf500008
:1071180017003e0000c3b300804f510001003a0041
:1071280071c0b300014e7800b0c2b300984f100090
:1071380001003a0067ce40000884e80098407800d3
:10714800e0cf500005003a00e500460080c8eb009b
:107158006fe89700104e9800090037008dcf500057
:1071680003003a00650646000804e800aaff370055
:107178000e007800eef507008000eb0081bf9f004d
:107188000fb897004f0778004f06be004f05be00a6
:107198004f04be006f00b10000000600889fbe00cb
:1071a80080047800668440001800d0004500de00a6
:1071b800f27f2000820f500010003a00800ceb0094
:1071c800180478006f016400200020001b003a00ba
:1071d80021019000e00f510018003a0011019000c1
:1071e800e00f510015003a0010002000910f110027
:1071f800120032002000200010003700e00f50007d
:1072080004003a00010078006e020700e00f500009
:1072180008003c00f20028001801610001fe23006c
:10722800010c710021c02f00810c40000080eb0090
:1072380002003700800ceb000000eb004f04be009a
:10724800000006004f02b000889fbe008a9fbe0063
:107258008c9fbe008e1f78000006780080c5b300a2
:1072680080cf50000a0032007740400080cf5000a5
:107278000a0032006940400080cf50000b00320005
:107288007019260080bf9f00ae0020000a0037005a
:107298006218260082bf9f00060037007319260077
:1072a80083bf9f008e00200003003700741926005a
:1072b80084bf9f000e0120003c02be002c03be00cc
:1072c8000605be000404be0040c6b30080cf5000cf
:1072d800030032006540400080cf50000b003a00a8
:1072e800e00f5200e08f5a00e00f5b00e08f5b0078
:1072f80006003d006044b8006055b800040454001e
:1073080085845c0006055d0087855d00e80f5700f1
:1073180003003200f00f57003a003a00020037002d
:10732800300020000100370040002000e00f54002a
:10733800e08f5c00e00f5d00e08f5d0004003a0024
:10734800dc0890008d012000e08f5000060032001c
:107358008e00e900888060008fba9700e5c0780049
:10736800f1e79f007d012000800078008100e9009e
:10737800050033008b05d1000a85d3008984d3002a
:107388000884d300f9ff3700089ebe000a96be00a5
:107398008e00e900110037008d06e90004816000c5
:1073a8008fb997006344790003fd2f008f81410056
:1073b80088f17e00000178000201e9000500330031
:1073c8008783d1000683d3008582d3000482d3004b
:1073d800f9ff3700049ebe000696be003c02be00c0
:1073e8002c03be00e00f5200e08f5a00e00f5b0054
:1073f800e08f5b00a1003400e08f5600e6ff3c0000
:107408009e003700ac60900080c6b30080cf50006b
:107418000b00320006003c00e0cf500008003200ac
:107428006640500080cf500058003a0004003700f2
:10743800c0c6b30080cf500054003a002a0037007d
:10744800e00f540004003a005c0890008d01200011
:10745800e00f500007003200110009000e84d80028
:107468008000fd008fb9970063407800f0e79f0027
:107478007d01200000027800811f780011000900ba
:107488000e84d8000002fd00cf0078000c00370001
:10749800110009000e02d800000178008d06e900ed
:1074a8000e90b900000052000fba9700e44278002d
:1074b80004fd2f000f02420005f27e000202780050
:1074c800e00f520002003200e08f5600f0ff3c004f
:1074d800cfa2de000503780086037800049ebe0074
:1074e8000696be0065003700e00f5400e08f5c0090
:1074f80004003a005c0890008d012000e00f500065
:10750800070032006171b9000800be0094f407005a
:107518000fb9970062417800f2e79f007d012000d3
:107528006175b9000a01be000800be007cf40700be
:107538000b0037000a01be000800be009df30700db
:107548008d06e90000f1b900020154008fb99700d7
:107558006342790003fd2f008f81410084f17e0092
:107568000004be00e00f5000e08f58000200320017
:10757800e08f5600efff3c00088ebe004fc8de00cb
:1075880020069800300698003c003700e00f5400b1
:10759800e08f5c00e00f5d00e08f5d0004003a00c2
:1075a8005c0890008d012000e00f50000b003200b5
:1075b8000e027800cfa2de0005037800860378006b
:1075c8000800be000a01be00580407008fba9700e1
:1075d800e5427800f5e79f007d0120000e00780065
:1075e800cf80de000101780082017800c0b79f00db
:1075f800d1b79f00e2b79f00f3b79f000203be0018
:107608000002be000800be000a01be0040040700d8
:107618000f0037004fb29700dfb297006fb39700a3
:10762800ffb397000800be000a01be00430407002c
:107638008d06e90000f2b900040454000fba97005f
:10764800e4427c0004fd2f000f02420005f27e0098
:10765800009ebe000296be003c04be002c05be0083
:10766800e00f5400e08f5c00e00f5d00e08f5d00ec
:1076780002003400e08f5600e6ff3c00e80f570098
:1076880010003a000c109000680060000d003200f5
:10769800f78f560006003e0008fd2f000f04440037
:1076a800e8c07e0000c3b30080cf50000500320060
:1076b8008d06e90002c3b30001fd2f008f80400052
:1076c80082f07e0078811600120e98006c009000ff
:1076d80003fd2f008f8141008d80410074f5070064
:1076e8001c089000dc089000810f500006003d0047
:1076f80000805000000e98000c1090000040a1007f
:10770800001698000f003700e08f50000d003d0074
:107718008c109000f4806000f08f500009003a004f
:107728007c099000fc009000810051000c09900039
:1077380082805000008050004240a90001003400bf
:10774800000e98004f0778004f06be004f05be0098
:107758004f04be004f02b100000006000400fa000a
:10776800889fbe008a9fbe008c1f780000047800a6
:1077780001067800f80d900078009000808555008b
:1077880008089000808555001808900080855500ed
:10779800a80c900089855500b80c90008985550083
:1077a800c80c9000898555000002220090bf9f00f8
:1077b80000032300a0bf9f00081090006400600031
:1077c80015003a00e08f5500130034000b057800cf
:1077d8008a047800e20f55000100360029002000d5
:1077e800c801900009017800ee8057005800900009
:1077f8000300010050049800e00f50008c00320094
:107808006808900009004000600c980009055500c0
:107818004240a900eeff3c0078019000e00f5100c3
:107828000c003400c80190008c00780058009000cb
:1078380003000100500498008080eb00e00f500026
:107848007c003200e808900078009000008040003a
:10785800600c9800880c9000e08f540011003400f0
:1078680009057800e28f5400010036002a00200044
:10787800c80190000a017800ec8057005800900079
:107888000300010050049800e00f50006800320027
:10789800680890000a004000600c98008a84540030
:1078a800edff370018099000e00f51000c0034007c
:1078b800c8019000e8009000580090000300010003
:1078c800500498008080eb00e00f5000590032000f
:1078d800e80890001808900000804000600c9800ac
:1078e800a80c9000e08f54001100340009057800be
:1078f800e28f5400010036002a002000c8019000e1
:107908000a017800ec80570058009000030001003d
:1079180050049800e00f50004500320068089000bd
:107928000a004000600c98008a845400edff37007c
:1079380038099000e00f51000e003400e800900074
:107948001808900080804000c801900058009000fe
:1079580003000100500498008080eb00e00f500005
:1079680034003200e8089000380890000080400099
:10797800600c9800c80c9000e08f5400110034008f
:1079880009057800e28f5400010036002a00200023
:10799800c80190000a017800ec8057005800900058
:1079a8000300010050049800e00f5000200032004e
:1079b800680890000a004000600c98008a8454000f
:1079c800edff370088109000e48060001900320055
:1079d8008000eb00818f5500160034008b0478007e
:1079e80009057800e28f5400010036002a002000c3
:1079f800c80190000a017800ee80570058009000f6
:107a08000300010050049800e00f50000800320005
:107a1800680890000a004000600c98008a845400ae
:107a28004240a900eeff3c008000eb000100370057
:107a38008080eb00010078004f0678004f05be00fb
:107a48004f04be000080fa0000000600010878001c
:107a580000000600e0dc2300eefc3700881f7800f9
:107a6800484726000040eb00984f100003003a00fa
:107a7800f8ff070020c0b300004c78004f047800de
:107a880000000600889fbe00000478000800780007
:107a980083fc0700800478000004200018006000c0
:107aa8000200320028009000a1f307000000eb005c
:107ab8002004980038409000e04f50000500350041
:107ac8000000fb00bc000700e00f5000010032007e
:107ad8008084eb0018109000e00f5000080032007e
:107ae800f1000700e00f5000010032008084eb0035
:107af800181090008ef307000000eb001014980097
:107b08000008200018006000110032006011b80061
:107b1800e4ba2500020041008380490000004200c9
:107b2800900f140002003a000008eb00050037002f
:107b380061014100e0814900e70f5100e08f5900e1
:107b4800f4ff36000800780079f307000e003700cc
:107b5800000c780000c0eb0030449800610220005f
:107b6800888040002104980041049800510498003e
:107b7800410c980061049800510c98007104980019
:107b880076004400000c9800090078004f04be00fd
:107b980000000600889fbe0078002000e9ba250092
:107ba8000800d00069007800e00f500001003200a2
:107bb800b4ff07000804e900f9ff3b004f04be00ca
:107bc80000000600e6004000910178000600280049
:107bd80006836100ef8161008308780012002000ad
:107be8000f003a00a0019000e08f51000c003a000d
:107bf80090019000e08f510009003a00908f110029
:107c080007003a003900370094087800130a780012
:107c180090097800050878007001510002003700cb
:107c2800640240008081e80091027800e08f5200f1
:107c3800f5ff32001200370094037800cf3bde00d6
:107c4800858242008588730093037800cf3bde006d
:107c58009402780085824200058a730093037800b5
:107c68008783430090027800cf2ade00858973005d
:107c780090027800058842000201e90002003700fe
:107c8800640240008081e80091027800ef8f520082
:107c9800e9ff36000f00370094037800cf3bdd0082
:107ca8009002d1000588730093037800cf3bdd0074
:107cb8009402d100058a730091037800cf3bdd0060
:107cc8009302d100858973009108d1000201e80070
:107cd800020037000082e800e401400091027800c9
:107ce800ff8f5200ecff3e00ef886200910873009e
:107cf800020078000000060000118000e00f50002c
:107d080006003d0011118000004020000080600046
:107d1800020032002302ab00feff32000040da000e
:107d2800feff3700889fbe0080047800b0238300e0
:107d3800e00f500004003a000f0007000084eb0039
:107d4800e00f500008003500b8238300e08f54008e
:107d5800050032000900440007000700e00f50004a
:107d680001003d000084eb00080078004f04be00cd
:107d78000000060000000500e00f500004003a0073
:107d8800a1472600b1238b00800078000600370049
:107d98008080eb00a2412700820f500002003e00c5
:107da800b0238b008000eb00010078000000060083
:107db80000c0da00000006000a00fa0011002000e6
:107dc800b1bf9f00c0bf9f006a805700f8ff07003f
:107dd8004fb897000080fa000000060000c0da00e3
:107de800000006000a00fa00e20f500021003e00e1
:107df800c0238300e10f50000600320085232000d5
:107e0800442320002323200000232000e08f520079
:107e180004003a008522200044222000232220006a
:107e280000222000060028009003630002003a00a8
:107e3800870a7800100873000040200013006000d3
:107e480001003a0013a0a0000200780006003700e5
:107e5800930278000510b200fdff3200b102fb006a
:107e6800050a78000000e900e00f5000f8ff3a002a
:107e78000800370033002000b3bf9f00c0bf9f0039
:107e8800d1bf9f00e2bf9f006a805700d3ff070061
:107e98006fb99700020078000080fa000000060021
:107ea80000c0da00000006000a00fa0051002000b5
:107eb800b1bf9f00c0bf9f006a805700f8ff07004e
:107ec8005fb897000080fa00000006008f1fd100fd
:107ed800210307008f87e9000000e000000006008a
:107ee800809feb001c0307008f87e9000000e0007b
:107ef800000006002800fa00889fbe008a9fbe0086
:107f08008c9fbe0003866b00800007006400e100c0
:107f1800440032006408e1004a0032006100e100d8
:107f2800460032006108e10049003200ec064700d3
:107f38006000b8003d02be003d03be00f486570055
:107f48006011b8003d04be003d05be007d03200061
:107f58000b0037000000a0008d06e9001300320076
:107f68000402420085824a0006034b0087834b00c7
:107f780000004000818048000201490083814900d7
:107f88000802520089825a000a035b008b835b0057
:107f9800f0ff3b000802420089824a000a034b00b6
:107fa8008b834b008d06e900edff3a008482720056
:107fb80086827200f707b2008782720001003200e1
:107fc800150020001e0490003e0b9000060354008c
:107fd800e63fb0000368a300070032000000a700d6
:107fe8000500a0008301d1000281d3008180d30065
:107ff8000080d3000603e8008301d1000281d3008a
:108008008180d3000080d3000002eb000482d200fc
:108018001200070003f0a1000cf0a70003f0a00075
:108028004e003700640247006408e100480032004f
:108038003400be003401be00f6ff37006108e100dd
:10804800430032006011b8006000b800f1ff37004b
:1080580003ff270002002000fbff37001800200064
:1080680057002000080453000d003d0006002000c2
:1080780097fc2f000740e1001e0034008482720044
:10808800610260008301d1000281d3008180d300a6
:108098000080d3000804e800f8ff3a0047002000f9
:1080a8006104600005047400040464000d003200db
:1080b80061004000e080480060014900e08149001b
